:020000040800F2
:1000000000000220FD210008E50D0008E70D0008B2
:10001000E90D0008EB0D0008ED0D000800000000E0
:10002000000000000000000000000000EF0D0008CC
:10003000F10D000800000000F30D0008F50D0008A8
:100040004D2200084D2200084D2200084D220008D4
:100050004D2200084D2200084D2200084D220008C4
:100060004D2200084D2200084D2200084D220008B4
:100070004D2200084D2200084D2200084D220008A4
:100080004D2200084D2200084D2200084D22000894
:100090004D2200084D2200084D2200084D22000884
:1000A0004D2200084D2200084D2200084D22000874
:1000B0004D2200084D2200084D2200084D22000864
:1000C0004D2200084D2200084D2200084D22000854
:1000D0004D2200084D2200084D2200084D22000844
:1000E0004D2200084D2200084D2200084D22000834
:1000F0004D2200084D2200084D2200084D22000824
:100100004D2200084D2200084D2200084D22000813
:100110004D2200084D220008FD0D00084D22000868
:100120004D2200084D2200084D2200084D220008F3
:100130004D22000800000000000000004D220008D1
:100140004D2200084D2200084D2200084D220008D3
:100150004D2200084D2200084D2200084D220008C3
:100160004D2200084D2200084D2200084D220008B3
:100170004D2200084D2200084D220008000000001A
:10018000000000004D2200080000000000000000F8
:100190004D22000800000000000000004D22000871
:1001A0000000000000000000000000004D220008D8
:1001B0004D2200084D2200084D2200084D22000863
:0401C0004D220008C4
:1001C8000348044B834202D0034B03B118477047DE
:1001D8000C0000200C000020000000000548064923
:1001E800091A891001EBD171491002D0034B03B1F0
:1001F800184770470C0000200C0000200000000089
:1002080010B5064C237843B9FFF7DAFF044B13B156
:100218000448AFF300800123237010BD0C000020B8
:10022800000000005022000808B5044B1BB1044927
:100238000448AFF30080BDE80840CFE700000000A5
:10024800100000205022000870B50D4E0D4D761B91
:10025800B61006D00024013455F8043B9847A6424E
:10026800F9D1094E094D761B01F0EEFFB61006D004
:100278000024013455F8043B9847A642F9D170BDD3
:1002880088220008882200088C220008882200089A
:10029800F0B4860743D0541E002A3ED0CAB20346A3
:1002A80002E014F1FF3438D303F8012B9D07F8D18D
:1002B800032C2BD9CDB245EA05250F2C45EA054577
:1002C80016D9A4F110073F0903F1200606EB07161B
:1002D80003F1100242E9045542E902551032B242D4
:1002E800F8D104F00F040137032C03EB07130DD9E1
:1002F8001E462246043A032A46F8045BFAD8221F0F
:1003080022F003020432134404F003042CB1C9B2EE
:100318001C4403F8011B9C42FBD1F0BC70471446F7
:100328000346C5E781F0004102E000BF83F00043C7
:1003380030B54FEA41044FEA430594EA050F08BF78
:1003480090EA020F1FBF54EA000C55EA020C7FEA3C
:10035800645C7FEA655C00F0E2804FEA5454D4EBB9
:100368005555B8BF6D420CDD2C4480EA020281EA83
:10037800030382EA000083EA010180EA020281EABB
:100388000303362D88BF30BD11F0004F4FEA01310D
:100398004FF4801C4CEA113102D0404261EB41011C
:1003A80013F0004F4FEA03334CEA133302D05242A2
:1003B80063EB430394EA050F00F0A780A4F101045E
:1003C800D5F1200E0DDB02FA0EFC22FA05F2801898
:1003D80041F1000103FA0EF2801843FA05F359417E
:1003E8000EE0A5F120050EF1200E012A03FA0EFCFD
:1003F80028BF4CF0020C43FA05F3C01851EBE37127
:1004080001F0004507D54FF0000EDCF1000C7EEB43
:1004180000006EEB0101B1F5801F1BD3B1F5001F81
:100428000CD349085FEA30004FEA3C0C04F10104A0
:100438004FEA445212F5800F80F09A80BCF1004FC9
:1004480008BF5FEA500C50F1000041EB045141EA4B
:10045800050130BD5FEA4C0C404141EB010111F44C
:10046800801FA4F10104E9D191F0000F04BF0146F7
:100478000020B1FA81F308BF2033A3F10B03B3F1D5
:1004880020020CDA0C3208DD02F1140CC2F10C0265
:1004980001FA0CF021FA02F10CE002F11402D8BFC3
:1004A800C2F1200C01FA02F120FA0CFCDCBF41EA8F
:1004B8000C019040E41AA2BF01EB0451294330BD5E
:1004C8006FEA04041F3C1CDA0C340EDC04F114043B
:1004D800C4F1200220FA04F001FA02F340EA030012
:1004E80021FA04F345EA030130BDC4F10C04C4F158
:1004F800200220FA02F001FA04F340EA0300294638
:1005080030BD21FA04F0294630BD94F0000F83F481
:10051800801306BF81F480110134013D4EE77FEA64
:10052800645C18BF7FEA655C29D094EA050F08BFB0
:1005380090EA020F05D054EA000C04BF1946104691
:1005480030BD91EA030F1EBF0021002030BD5FEAD5
:10055800545C05D14000494128BF41F0004130BDFD
:1005680014F580043CBF01F5801130BD01F0004551
:1005780045F0FE4141F470014FF0000030BD7FEAC4
:10058800645C1ABF194610467FEA655C1CBF0B46BF
:10059800024650EA013406BF52EA033591EA030FD6
:1005A80041F4002130BD00BF90F0000F04BF0021CE
:1005B800704730B54FF4806404F132044FF0000501
:1005C8004FF0000150E700BF90F0000F04BF00217A
:1005D800704730B54FF4806404F1320410F00045E0
:1005E80048BF40424FF000013EE700BF42004FEADB
:1005F800E2014FEA31014FEA02701FBF12F07F4358
:1006080093F07F4F81F06051704732F07F4208BF0E
:10061800704793F07F4F04BF41F40021704730B515
:100628004FF4607401F0004521F000411CE700BF61
:1006380050EA010208BF704730B54FF000050AE0E4
:1006480050EA010208BF704730B511F0004502D5E5
:10065800404261EB41014FF4806404F132045FEAE7
:10066800915C3FF4D8AE4FF003025FEADC0C18BF90
:1006780003325FEADC0C18BF033202EBDC02C2F182
:10068800200300FA03FC20FA02F001FA03FE40EA14
:100698000E0021FA02F11444BDE600BF4FF0FF3C02
:1006A80006E000BF4FF0010C02E000BF4FF0010C64
:1006B8004DF804CD4FEA410C7FEA6C5C4FEA430CDD
:1006C80018BF7FEA6C5C1BD001B050EA410C0CBF2C
:1006D80052EA430C91EA030F02BF90EA020F00208E
:1006E800704710F1000F91EA030F58BF994208BFF5
:1006F80090422CBFD8176FEAE37040F001007047B2
:100708004FEA410C7FEA6C5C02D150EA013C07D108
:100718004FEA430C7FEA6C5CD6D152EA033CD3D053
:100728005DF8040B704700BF8446104662468C464D
:100738001946634600E000BF01B5FFF7B7FF002880
:1007480048BF10F1000F01BD4DF808EDFFF7F4FFA9
:100758000CBF012000205DF808FB00BF4DF808ED34
:10076800FFF7EAFF34BF012000205DF808FB00BF57
:100778004DF808EDFFF7E0FF94BF012000205DF879
:1007880008FB00BF4DF808EDFFF7CEFF94BF01202E
:1007980000205DF808FB00BF4DF808EDFFF7C4FF27
:1007A80034BF012000205DF808FB00BF4FEA41027A
:1007B800B2F1E04324BFB3F5001CDCF1FE5C0DD9B7
:1007C80001F0004C4FEAC0024CEA5070B2F1004F01
:1007D80040EB830008BF20F00100704711F0804F04
:1007E80021D113F13872BCBF01F00040704741F4C9
:1007F80080114FEA5252C2F11802C2F1200C10FACD
:100808000CF320FA02F018BF40F001004FEAC123B0
:100818004FEAD32303FA0CFC40EA0C0023FA02F354
:100828004FEA4303CCE77FEA625307D150EA01332A
:100838001EBF4FF0FE4040F44000704701F00040FA
:1008480040F0FE4040F40000704700BF53B94AB979
:10085800002908BF00281CBF4FF0FF314FF0FF30C0
:1008680000F072B9ADF1080C6DE904CE00F006F89D
:10087800DDF804E0DDE9022304B070472DE9F04714
:10088800089E04468846002B4BD18A42154667D9F4
:10089800B2FA82F24AB1C2F1200701FA02F320FA51
:1008A80007F7954047EA030894404FEA154E230C92
:1008B800B8FBFEF71FFA85FC0EFB178843EA0843CE
:1008C80007FB0CF1994209D9EB1807F1FF3080F0CA
:1008D8001B81994240F21881023F2B445B1AA4B253
:1008E800B3FBFEF00EFB103344EA034400FB0CFCA0
:1008F800A44509D92C1900F1FF3380F00781A445DC
:1009080040F2048102382C4440EA0740A4EB0C046E
:1009180000271EB1D4400023C6E900433946BDE88C
:10092800F0878B4209D9002E00F0EB800027C6E93A
:10093800000138463946BDE8F087B3FA83F7002F3F
:1009480047D18B4202D3824200F2FA80841A61EBCB
:10095800030301209846002EE0D0C6E90048DDE7F1
:1009680002B9FFDEB2FA82F2002A40F08F80491BFA
:100978004FEA154E1FFA85F80127B1FBFEFC230C40
:100988000EFB1C1143EA014308FB0CF1994207D9FD
:10099800EB180CF1FF3002D2994200F2CD80844668
:1009A800591AA3B2B1FBFEF00EFB101443EA04443B
:1009B80008FB00F8A04507D92C1900F1FF3302D233
:1009C800A04500F2B6801846A4EB080440EA0C40A3
:1009D8009FE7C7F1200CBB4022FA0CFE4EEA030E3B
:1009E80001FA07F420FA0CF521FA0CF34FEA1E4835
:1009F8002543B3FBF8F92C0C08FB19331FFA8EFAC0
:100A080044EA034309FB0AF49C4202FA07F200FA9B
:100A180007F10BD91EEB030309F1FF3080F0878043
:100A28009C4240F28480A9F1020973441B1BADB2B9
:100A3800B3FBF8F008FB103345EA034400FB0AFA5D
:100A4800A24508D91EEB040400F1FF336BD2A2457E
:100A580069D90238744440EA0940A0FB0289A4EB32
:100A68000A044C45C2464B4654D351D0002E69D097
:100A7800B1EB0A0564EB030404FA0CFCFD40FC40EE
:100A88004CEA0505C6E90054002747E7C2F12003F0
:100A980020FA03F7954001FA02F021FA03F34FEA2E
:100AA800154E3843010CB3FBFEF71FFA85F80EFB11
:100AB800173341EA034107FB08F38B4204FA02F4B7
:100AC80007D9691807F1FF3C2FD28B422DD9023F75
:100AD8002944CB1A81B2B3FBFEF00EFB103341EA76
:100AE800034100FB08F38B4207D9691800F1FF3C6A
:100AF80017D28B4215D902382944C91A40EA074748
:100B08003BE73746304609E70746E7E61846FBE67F
:100B18004145ABD2B8EB020A69EB0E020138134625
:100B2800A4E76046E9E7184695E76746D1E78146B6
:100B38007CE702382C4447E7ACF1020C2B442FE742
:100B4800384608E73746E9E6704700BF00B58BB07E
:100B5800002207920892099201921A4B196B41F0F0
:100B680004011963196B01F00401019101990292C2
:100B7800196B41F080011963196B01F08001029132
:100B880002990392196B41F001011963196B01F085
:100B980001010391039904921A6B42F002021A634D
:100BA8001B6B03F002030493049B4FF4005305935B
:100BB800054B069305A9054801F008F90BB05DF847
:100BC80004FB00BF0038024000002110000802406A
:100BD80030B583B00024009401940A4D0A4B2B6071
:100BE800284600F0C7F90094019422466946284631
:100BF80000F03AFA10226946284600F035FA03B0A8
:100C080030BD00BF280000200074004008B5084827
:100C1800084B03604FF4E133436000238360C360F3
:100C280003610C2242618361C36100F059FD08BD74
:100C38007C0000200044004030B583B000250095BA
:100C48000195094C094B23606560A5606423E36046
:100C5800A561204600F06CFB009501956946204689
:100C680000F07FFB03B030BD3C00002000100040C6
:100C780030B595B03422002107A8FFF709FB0024FE
:100C88000294039404940594069400941C4B1A6CE3
:100C980042F080521A641B6C03F080530093009B4F
:100CA8000194184B1A6842F440421A601B6803F416
:100CB80040430193019B0225079501230A931023C2
:100CC8000B930D950E9408230F93B423109311954D
:100CD8001295139507A800F097FE01F055F90F2318
:100CE8000293039504944FF4A05305934FF4805353
:100CF8000693052102A800F023FD15B030BD00BF02
:100D0800003802400070004038B501F00DFAFFF7D6
:100D1800AFFFFFF71BFFFFF75BFFFFF777FFFFF75B
:100D28008BFF2D4C0021204600F036F9102120467B
:100D380000F032F9012001F023FA002529E0002013
:100D4800FFF754FC1EA3D3E90023FFF7F1FAFFF7DE
:100D58002DFD0546204CFF2308220021204600F0E7
:100D6800A8F9002308221021204600F0A2F9322019
:100D780001F006FA002308221946204600F099F9E6
:100D8800FF2308221021204600F093F9322001F0B9
:100D9800F7F92846FFF72AFC04460D460AA3D3E9CB
:100DA8000023FFF7D1FC0028C9D109A3D3E9002308
:100DB80020462946FFF7BCFAFFF7F8FCC0E700BF5A
:100DC8009A9999999999B93F7A008BFCFA21194017
:100DD8007A008BFCFA210940280000207047FEE7C2
:100DE800FEE7FEE7FEE770477047704708B501F079
:100DF800B5F908BD08B5034800F006F9024800F047
:100E080075F908BD280000203C00002000B583B01B
:100E1800002100910C4B5A6C42F480425A645A6C7F
:100E280002F480420092009A01911A6C42F08052BA
:100E38001A641B6C03F080530193019B072001F097
:100E4800E3F803B05DF804FB0038024010B588B041
:100E58000023039304930593069307930268164BA4
:100E68009A4201D008B010BD0024019403F5E23382
:100E78001A6C42F000521A641A6C02F00052019285
:100E8800019A02941A6B42F001021A631B6B03F079
:100E980001030293029B302303930323049303A9C2
:100EA800064800F093FF22462146362001F0BEF89E
:100EB800362001F0EFF8D5E700740040000002404A
:100EC80002680E4B9A4200D0704700B583B00021EB
:100ED800019103F50A331A6C42F010021A641B6C74
:100EE80003F010030193019B0A46362001F09EF897
:100EF800362001F0CFF803B05DF804FB0010004085
:100F080000B589B0002303930493059306930793D0
:100F18000268164B9A4202D009B05DF804FB002122
:100F2800019103F5FA331A6C42F400321A641A6C10
:100F380002F400320192019A02911A6B42F0010206
:100F48001A631B6B03F001030293029B0C230393A8
:100F5800022304930123059303230693072307938E
:100F680003A9034800F032FFD6E700BF0044004061
:100F78000000024070B110B50446037933B1022372
:100F88002371002020610123237110BD4371FFF7F5
:100F98005DFFF4E7012070474379012B31D010B48D
:100FA8000123437102220271046822688B401343B3
:100FB8002360B1B902681168136803F0380311F0AF
:100FC800040F01D0382B07D001230371002343718C
:100FD80018465DF8044B7047536843F001035360AB
:100FE800F2E702681168136803F4601311F4802FA4
:100FF800EAD0B3F5601FE7D1536843F002035360AA
:10100800E2E702207047704710B5044603685A6B40
:1010180012F4005F05D123685A6B12F0005F11D1FA
:1010280010BD04220271026942F0010202614FF40C
:1010380000525A630268136823F480531360FFF761
:10104800E2FFE8E704222271226942F002022261EB
:101058004FF000525A632268136823F080531360DC
:10106800204600F03DF8DBE74379012B1FD070B430
:1010780001254571022303710668336840F6FE7442
:10108800944023EA04040B6849680B4393402343C4
:10109800336004682368C02101FA02F223EA0202DD
:1010A8002260057100234371184670BC7047022006
:1010B800704710B483B0002401940068019051B1C6
:1010C80001990A4414320192019A1360002003B076
:1010D8005DF8044B704701990A4408320192F3E71E
:1010E80070477047704770477047704710B504469F
:1010F80003681A6912F0020F11D0DA6812F0020FB1
:101108000DD06FF002021A610123037703689B690F
:1011180013F0030F70D0FFF7E6FF0023237723684F
:101128001A6912F0040F12D0DA6812F0040F0ED008
:101138006FF004021A610223237723689B6913F472
:10114800407F5FD02046FFF7CEFF00232377236838
:101158001A6912F0080F12D0DA6812F0080F0ED0D0
:101168006FF008021A61042323772368DB6913F000
:10117800030F4ED02046FFF7B6FF002323772368DE
:101188001A6912F0100F12D0DA6812F0100F0ED090
:101198006FF010021A61082323772368DB6913F4C0
:1011A800407F3DD02046FFF79EFF0023237723682A
:1011B8001A6912F0010F03D0DA6812F0010F36D164
:1011C80023681A6912F0800F03D0DA6812F0800FD2
:1011D80034D123681A6912F0400F03D0DA6812F08C
:1011E800400F32D123681A6912F0200F03D0DA6851
:1011F80012F0200F30D110BDFFF774FF2046FFF723
:1012080073FF8AE72046FFF76DFF2046FFF76CFF64
:101218009BE72046FFF766FF2046FFF765FFACE730
:101228002046FFF75FFF2046FFF75EFFBDE76FF040
:1012380001021A612046FFF754FFC1E76FF08002F0
:101248001A61204600F0B1F8C3E76FF040021A6156
:101258002046FFF74AFFC5E76FF020021A612046D3
:1012680000F0A2F8C7E700000368304A904212D0A5
:10127800B0F1804F0FD0A2F57C4290420BD002F51E
:101288008062904207D002F58062904203D002F556
:101298007842904203D123F070034A681343234AEB
:1012A80090422AD0B0F1804F27D0A2F57C429042DC
:1012B80023D002F5806290421FD002F580629042EE
:1012C8001BD002F57842904217D002F57052904236
:1012D80013D002F5806290420FD002F580629042EE
:1012E8000BD0A2F59832904207D002F58062904266
:1012F80003D002F58062904203D123F44073CA6898
:10130800134323F080034A69134303608B68C36265
:101318000B688362054B984203D003F580639842BB
:1013280001D10B6903630123436170470000014049
:10133800A8B110B5044690F83D305BB1022384F89B
:101348003D30211D2068FFF78FFF012384F83D30D1
:10135800002010BD80F83C30FFF7B2FDEEE7012019
:10136800704790F83C30012B1CD070B4012680F8EF
:101378003C60022380F83D3002685568936825F088
:1013880070050C682C4323F080054B682B43546090
:101398000268936080F83D60002380F83C3018466E
:1013A80070BC704702207047704770472DE9F843BA
:1013B80004460268136923F44053C1680B43136160
:1013C80083680269134342691343C2691A43016877
:1013D800CB6823F4164323F00C031343CB60026855
:1013E800536923F4407381690B435361C369B3F5AF
:1013F800004F60D00368B84A934200F0148102F5A8
:101408008062934200F00F8100F04CFA00EB8000FC
:1014180000EB80006568AD00B0FBF5F5AF4FA7FBAA
:1014280005356D092E0100F03DFA00EB800000EB58
:1014380080006568AD00B0FBF5F900F033FA00EB09
:10144800800000EB80006568AD00B0FBF5F5A7FBF8
:1014580005356D094FF0640808FB15952D013235E7
:10146800A7FB05356D0905F0F005354400F01AFABB
:1014780000EB800000EB80006668B600B0FBF6F673
:1014880000F010FA00EB800000EB800063689B001E
:10149800B0FBF3F0A7FB0030400908FB10684FEAE7
:1014A800081808F13208A7FB0837C7F34317236861
:1014B8002F449F600DE10368874A93425BD002F591
:1014C8008062934257D000F0EDF900EB800000EB0A
:1014D800800065686D00B0FBF5F5804FA7FB05350A
:1014E8006D092E0100F0DEF900EB800000EB8000B2
:1014F80065686D00B0FBF5F900F0D4F900EB8000E9
:1015080000EB800065686D00B0FBF5F5A7FB0535BD
:101518006D094FF0640808FB1595ED003235A7FBFF
:1015280005356D096D0005F4F875354400F0BAF914
:1015380000EB800000EB800066687600B0FBF6F6F2
:1015480000F0B0F900EB800000EB800063685B00FE
:10155800B0FBF3F3A7FB03235B0908FB13684FEA0F
:10156800C80808F13208A7FB0837C7F342172368F1
:101578002F449F60ADE000F0A5F900EB800000EB80
:10158800800065686D00B0FBF5F5544FA7FB053585
:101598006D092E0100F096F900EB800000EB800049
:1015A80065686D00B0FBF5F900F08CF900EB800080
:1015B80000EB800065686D00B0FBF5F5A7FB05350D
:1015C8006D094FF0640808FB1595ED003235A7FB4F
:1015D80005356D096D0005F4F875354400F072F9AC
:1015E80000EB800000EB800066687600B0FBF6F642
:1015F80000F068F900EB800000EB800063685B0096
:10160800B0FBF3F3A7FB03235B0908FB13684FEA5E
:10161800C80808F13208A7FB0837C7F34217236840
:101628002F449F6055E000F04DF900EB800000EB7F
:1016380080006568AD00B0FBF5F5284FA7FB0535C0
:101648006D092E0100F03EF900EB800000EB8000F0
:101658006568AD00B0FBF5F900F034F900EB8000E7
:1016680000EB80006568AD00B0FBF5F5A7FB05351C
:101678006D094FF0640808FB15952D013235A7FB5D
:1016880005356D0905F0F005354400F01BF900EB50
:10169800800000EB80006668B600B0FBF6F600F04C
:1016A80011F900EB800000EB800063689B00B0FB41
:1016B800F3F0A7FB0030400908FB10684FEA081850
:1016C80008F13208A7FB0837C7F3431723682F44EC
:1016D8009F60BDE8F88300BF001001401F85EB51F3
:1016E80058B310B5044690F839300BB3242384F866
:1016F80039302268D36823F40053D3602046FFF7BB
:1017080055FE2268136923F49043136122685369D4
:1017180023F02A0353612268D36843F40053D3604B
:101728000020E063202384F8393084F83A3010BD73
:1017380080F83830FFF7E4FBD8E701207047000055
:10174800002800F09D8070B504464F4B1B6803F0DD
:101758000F038B4209D2CBB24B4A1370136803F0C4
:101768000F038B4201D0012070BD236813F0020FD4
:1017780017D013F0040F04D0444A936843F4E0539D
:101788009360236813F0080F04D0404A936843F429
:10179800604393603D4A936823F0F003A0680343D5
:1017A80093600D46236813F0010F32D06368012B54
:1017B80021D09A1E012A25D9344A126812F0020F44
:1017C80060D032498A6822F0030213438B6000F02C
:1017D800D1FC06462D4B9B6803F00C036268B3EB03
:1017E800820F16D000F0C6FC801B41F28833984265
:1017F800F0D90320B8E7254A126812F4003FE0D177
:101808000120B1E7214A126812F0007FD9D10120E6
:10181800AAE71D4B1B6803F00F03AB4209D9EAB2D4
:10182800194B1A701B6803F00F03AB4201D001205B
:101838009AE7236813F0040F06D0144A936823F438
:10184800E053E1680B439360236813F0080F07D057
:101858000E4A936823F46043216943EAC103936005
:1018680000F040F8094B9B68C3F30313084AD35CA4
:10187800D840084B1860002000F030FC002073E7C7
:101888000120704701206FE7003C02400038024009
:101898006822000808000020014B1868704700BF44
:1018A8000800002008B5FFF7F7FF044B9B68C3F357
:1018B8008223034AD35CD84008BD00BF00380240E9
:1018C8007822000808B5FFF7E7FF044B9B68C3F3CD
:1018D8004233034AD35CD84008BD00BF00380240F9
:1018E800782200082DE9F04B444B9B6803F00C0369
:1018F800082B06D00C2B42D0042B7CD04048BDE8E6
:10190800F08B3E4B5A6802F03F025B6813F4800F7D
:1019180012D03A4B5968C1F3881100233948A1FB0A
:101928000001FEF793FF354B5B68C3F301430133B6
:101938005B00B0FBF3F0E2E7304B5B68C3F388135E
:101948001E4600275C010025E41A65EB0705A9017E
:1019580041EA9461A001001B61EB0501CB0043EA59
:101968005073C400A01943EB07018B0243EA90535C
:101978008402204619460023FEF768FFD3E71F4B71
:101988005A6802F03F025B6813F4800F10D01B4BBB
:101998005968C1F3881100231A48A1FB0001FEF71A
:1019A80055FF164B5B68C3F30273B0FBF3F0A6E771
:1019B800124B5B68C3F388131E4600275C010025A1
:1019C800E41A65EB0705A90141EA9461A001001B2F
:1019D80061EB0501CB0043EA5073C400A01943EB47
:1019E80007018B0243EA90538402204619460023DC
:1019F800FEF72CFFD5E7034881E700BF0038024017
:101A08000024F40080BA8C0170B582B004460368E3
:101A180013F0010F41D0A64B9B6803F00C03042B75
:101A280032D0A34B9B6803F00C03082B27D0A04BA4
:101A38009B6803F00C030C2B59D06368B3F5803F07
:101A48005BD0B3F5A02F5ED0994B1A6822F4803290
:101A58001A601A6822F480221A606368002B5CD02E
:101A680000F088FB0546924B1B6813F4003F14D125
:101A780000F080FB401B6428F5D903209DE18C4BC6
:101A88005B6813F4800FD2D0894B1B6813F4003FB6
:101A980003D06368002B00F08D81236813F0020FD8
:101AA80067D0834B9B6813F00C0F4AD0804B9B6820
:101AB80003F00C03082B3FD07D4B9B6803F00C030D
:101AC8000C2B48D0E368002B74D07A4B01221A60A3
:101AD80000F050FB0546764B1B6813F0020F60D1EF
:101AE80000F048FB401B0228F5D9032065E1704B44
:101AF8005B6813F4800FA0D0C6E76D4A136843F4FF
:101B080080331360A9E76A4B1A6842F480221A608E
:101B18001A6842F480321A609FE700F02BFB0546F2
:101B2800634B1B6813F4003FB7D000F023FB401B46
:101B38006428F5D9032040E15D4B5B6813F4800FFE
:101B4800BAD15B4B1B6813F0020F0AD0E368012B74
:101B580007D0012031E1564B5B6813F4800FB1D1F7
:101B6800EFE7534A136823F0F803216943EAC103F6
:101B78001360236813F0080F40D0636963B34E4BBA
:101B880001221A6000F0F6FA0546494B5B6F13F024
:101B9800020F33D100F0EEFA401B0228F5D90320DA
:101BA8000BE1434A136823F0F803216943EAC103B0
:101BB8001360DEE73F4B00221A6000F0DBFA0546AF
:101BC8003B4B1B6813F0020FD3D000F0D3FA401B35
:101BD8000228F5D90320F0E0374B00221A6000F004
:101BE800C9FA0546324B5B6F13F0020F06D000F0BE
:101BF800C1FA401B0228F5D90320DEE0236813F060
:101C0800040F79D02A4B1B6C13F0805F33D100236B
:101C18000193274B1A6C42F080521A641B6C03F034
:101C280080530193019B0125244B1B6813F4807F8B
:101C380023D0A368012B34D0052B41D01C4B1A6F3D
:101C480022F001021A671A6F22F004021A67A368C9
:101C5800002B3FD000F08EFA0646154B1B6F13F091
:101C6800020F48D100F086FA801B41F2883398426F
:101C7800F3D90320A1E00025D6E7104A136843F4FE
:101C88008073136000F076FA06460C4B1B6813F459
:101C9800807FCED100F06EFA801B0228F5D9032090
:101CA8008BE0034A136F43F001031367CFE700BFCC
:101CB8000038024000004742800E47420070004052
:101CC800404B1A6F42F004021A671A6F42F0010281
:101CD8001A67BCE700F04EFA06463A4B1B6F13F042
:101CE800020F08D000F046FA801B41F28833984270
:101CF800F3D9032061E0E5B9A369002B5CD0314A30
:101D0800926802F00C02082A59D0022B17D02E4BE9
:101D180000221A6000F02EFA04462A4B1B6813F0C2
:101D2800007F45D000F026FA001B0228F5D90320D1
:101D380043E0244A136C23F080531364DCE7224BFE
:101D480000221A6000F016FA05461E4B1B6813F0B5
:101D5800007F06D000F00EFA401B0228F5D90320B8
:101D68002BE0E369226A1343626A43EA8213A26A98
:101D78005208013A43EA0243E26A43EA0263226BE9
:101D880043EA02730F4A53600F4B01221A6000F0B6
:101D9800F1F904460B4B1B6813F0007F06D100F0E5
:101DA800E9F9001B0228F5D9032006E0002004E029
:101DB800002002E0012000E0002002B070BD0120F8
:101DC800FBE700BF003802406000474200230F2BAA
:101DD80000F2D180F0B482B039E0062200E000229F
:101DE800B2403A430234644E46F82420634A1468E9
:101DF800EA4302EA04064F6817F4803F01D045EA37
:101E080004065E4C2660646802EA04064F6817F40C
:101E1800003F01D045EA0406584C6660A46802EA0F
:101E280004064F6817F4801F01D045EA0406534C96
:101E3800A660E46822404E6816F4001F01D045EA07
:101E480004024E4CE26001330F2B00F29180012214
:101E58009A400C6804EA0205AA42F4D14C68022CA4
:101E680001D0122C10D1DE08083650F826C003F035
:101E78000704A7000F24BC402CEA040C0C69BC40E2
:101E880044EA0C0440F8264004685F000326BE407C
:101E9800F64306EA040C4C6804F00304BC4044EA28
:101EA8000C0404604C6804F1FF3CBCF1010F03D939
:101EB800112C01D0122C10D1846806EA040CCC68CD
:101EC800BC4044EA0C048460446824EA02024C687A
:101ED800C4F300149C4014434460C26816408A68E6
:101EE800BA403243C2604A6812F0805FABD0002229
:101EF8000192234A546C44F480445464526C02F4B2
:101F080080420192019A9C08A61C1B4A52F826702E
:101F180003F0030296000F22B24027EA0207194A8B
:101F280090423FF45CAF02F58062904216D002F511
:101F38008062904214D002F58062904212D002F57D
:101F48008062904210D002F5806290420ED002F575
:101F5800806290423FF441AF072241E701223FE708
:101F680002223DE703223BE7042239E7052237E74F
:101F780002B0F0BC7047704700380140003C014097
:101F8800003802400000024010B582B000230193DF
:101F9800194B1A6C42F080521A641B6C03F0805380
:101FA8000193019B154B01221A6000F0E3F80446E7
:101FB800134B5B6813F4803F08D100F0DBF8001B7B
:101FC800B0F57A7FF4D9032002B010BD0D4B012281
:101FD8001A6000F0CFF80446094B5B6813F4003F21
:101FE80007D100F0C7F8001BB0F57A7FF4D90320B9
:101FF800EAE70020E8E700BF0038024040000E4250
:102008000070004044000E42074AD36823F4E0639E
:102018001B041B0C000200F4E060184340F0BF6092
:1020280040F40030D060704700ED00E030B4174B4A
:10203800DB68C3F30223C3F10704042C28BF04247C
:102048001D1D062D18D9033B4FF0FF3505FA04F482
:1020580021EA0401994005FA03F322EA030319432C
:1020680000280BDB0901C9B200F1604000F56140AE
:1020780080F8001330BC70470023E5E700F00F003C
:102088000901C9B2024B1954F4E700BF00ED00E0A2
:1020980014ED00E0002807DB00F01F0240090123CF
:1020A8009340024A42F82030704700BF00E100E048
:1020B8000138B0F1807F0AD2064B5860064AF021F9
:1020C80082F823100020986007221A6070470120C8
:1020D800704700BF10E000E000ED00E010B50446D6
:1020E8000E4B18784FF47A73B3FBF0F30C4A106870
:1020F800B0FBF3F0FFF7DCFF68B90F2C01D9012022
:102108000AE0002221464FF0FF30FFF78FFF054B12
:102118001C60002000E0012010BD00BF000000206E
:10212800080000200400002008B50B4B1A6842F490
:1021380000721A601A6842F480621A601A6842F4DF
:1021480080721A600320FFF75FFF0020FFF7C6FFC9
:10215800FEF75CFE002008BD003C0240034A1168FF
:10216800034B1B780B441360704700BFBC00002072
:1021780000000020014B1868704700BFBC00002019
:1021880038B50446FFF7F6FF0546B4F1FF3F02D025
:10219800044B1B781C44FFF7EDFF401BA042FAD309
:1021A80038BD00BF000000200F49D1F8883043F443
:1021B8007003C1F888300D4B1A6842F001021A60AA
:1021C800002098601A6822F0847222F480321A6023
:1021D800074A5A601A6822F480221A60D8604FF0C1
:1021E80000638B60704700BF00ED00E000380240DC
:1021F80010300024DFF834D0002103E00C4B5B588A
:10220800435004310B480C4B42189A42F6D30B4A00
:1022180002E0002342F8043B094B9A42F9D3FFF746
:10222800C3FFFEF711F8FEF76FFD704700000220AC
:1022380090220008000000200C0000200C00002064
:10224800C0000020FEE70000F8B500BFF8BC08BCDD
:102258009E467047F8B500BFF8BC08BC9E4670475C
:10226800000000000000000001020304060708093E
:08227800000000000102030454
:0822800004E6FF7F01000000ED
:042288003102000817
:04228C00090200083B
:0C22900001000000100000000024F40019
:04000005080021FDD1
:00000001FF
